:020000041000EA
:1000000000B5324B212058609868022188439860DF
:10001000D860186158612E4B002199600221596106
:100020000121F02299502B49196001219960352056
:1000300000F044F80222904214D00621196600F024
:1000400034F8196E01211966002018661A6600F04E
:100050002CF8196E196E196E052000F02FF8012189
:100060000842F9D1002199601B49196000215960AB
:100070001A491B48016001219960EB211966A021F2
:10008000196600F012F800219960164914480160C1
:100090000121996001BC002800D000471248134993
:1000A000086003C880F30888084703B5996A0420EC
:1000B0000142FBD001200142F8D103BD02B5186610
:1000C0001866FFF7F2FF186E186E02BD00000240BE
:1000D000000000180000070000035F00212200005C
:1000E000F4000018222000A00001001008ED00E03C
:1000F00000000000000000000000000074B24E7A12
:1001000000200420F7010010C3010010C5010010F9
:10011000C1010010C1010010C1010010C101001097
:10012000C1010010C1010010C1010010C701001081
:10013000C1010010C1010010C9010010CB01001065
:10014000CD010010CD010010CD010010CD01001037
:10015000CD010010CD010010CD010010CD01001027
:10016000CD010010CD010010CD010010CD01001017
:10017000CD010010CD010010CD010010CD01001007
:10018000CD010010CD010010CD010010CD010010F7
:10019000CD010010CD010010CD010010CD010010E7
:1001A000CD010010CD010010CD010010CD010010D7
:1001B000CD010010CD010010CD010010CD010010C7
:1001C00000BE00BE00BE00BE00BE00BEEFF3058054
:1001D000103800BEF2EB8871409A0010709A00103F
:1001E0003802001090A31AE71E481F49086006C88D
:1001F00081F3088810471D480068002801D019487D
:10020000F3E70DA40ECC002902D000F012F8F9E7B4
:100210001749184A002000E001C19142FCD116495B
:100220008847164988471649884700BEFDE701C937
:1002300001C29A42FBD37047709A0010C0000020A0
:10024000B80C002068A60010000004200000042064
:1002500068A6001000100420001004200000000018
:10026000704700000000000008ED00E0000000D032
:10027000B80C0020581D0020CD4A0010A904001021
:100280008D4A0010F8B5C04606480749091A8B1078
:10029000C90FC91810B5491003D0044B002B00D06A
:1002A000984710BDB80C0020B80C002000000000DA
:1002B000054B10B5002B03D00449054800E000BFF2
:1002C000FFF7E2FF10BDC04600000000E41A002066
:1002D0003482001070B5D0231B061B6DDB07FAD5E6
:1002E00007F071FE040007F06EFE050007F06BFEDC
:1002F000021CE0B2290000F0A9FC024807F059FEF8
:10030000E9E7C046ADDE000010B50A4C230001222B
:100310000821052000F0C4FD230001220821072048
:1003200000F0BEFD230001220821062000F0B8FDE8
:1003300010BDC0465103001070B50D00141C07F02D
:1003400038FE280007F035FE200007F032FE70BDB1
:1003500010B50400214B9A6A214B1B68D31A21491E
:100360008B4207D91E4B1A60052804D0072C14D0E5
:10037000062C24D010BD052000F004FA0028F5D08A
:10038000D0231B0604225A6104329A61E121164AE5
:1003900089000020FFF7D0FFECE7072000F0F2F91A
:1003A0000028E5D0D0231B0610225A61083A9A6132
:1003B000E1210E4A89000120FFF7BEFFDAE706209F
:1003C00000F0E0F90028D5D0D0231B0604229A6162
:1003D0000C329A61083A5A61CCE7C04600400540A9
:1003E000D81A00204FC300000000C8420000964306
:1003F00030B58BB00500081C094C03F061F9009082
:1004000001912B002200202102A804F019FB02A870
:1004100000F0E4FB642001F083FD0BB030BDC0466A
:100420003882001010B584B000F024F9041E01D108
:1004300004B010BD00F0C1FB0021002000F0C3FBA0
:10044000064A23001021684604F0FAFA684600F0D4
:10045000C5FB9620400001F063FDE9E740820010F3
:1004600010B50021002000F0AEFB012000F070F973
:1004700003F0C5F8011C024B1800FFF7B9FF10BDCF
:100480004C82001010B50021012000F09CFB0020E0
:1004900000F05EF903F0B3F8011C024B1800FFF7FF
:1004A000A7FF10BD5482001030B585B000F0BEFA31
:1004B000FFF72AFF022000F06BFD032000F068FD2B
:1004C000042000F065FDD0231B0604225A6204328A
:1004D0005A6208325A62244807F0E0FD002421E005
:1004E000FFF7A0FFFFF7CEFFFFF7BAFF0B210020B9
:1004F00000F069FB651C1D492200684604F08AFA79
:10050000684600F06BFBFA20800001F009FD2C002A
:10051000D0231B061B6DDB07E2D507F054FD144BFF
:10052000984214D000F049FB0D21012000F04BFB54
:10053000651C10492200684604F06CFA684600F019
:100540004DFBFA20800001F0EBFC2C00E0E7D0230B
:100550001B0604229A610C329A61083A5A610648D5
:1005600004F0D9FBDEE7C046D5020010608200101F
:10057000ADDE00005C8200106882001083001B1852
:100580009B000B488446634400290DD01020824014
:1005900000290BD00749186842400A4080214901D0
:1005A0008C4663441A6070470800F0E70249F2E79E
:1005B0000C0005400000FFFFFFFF000010B5002207
:1005C00002490A2000F0A2F910BDC04600007A449A
:1005D00070B50500164802F0BEFF061C154902F072
:1005E000BAFF03F065F80400301C03F061F812490B
:1005F00002F04EF9002900D001340F2C00D810244D
:1006000021090F232340FF220A4012011A43AB00A5
:10061000591989000948844661444A60064A0A61BA
:100620008022120100210520FFF7A8FF70BDC046FF
:10063000286BEE4C00F07F45FF0F000000000540E6
:1006400070B5041C0D00002102F0CCFF00280FD172
:10065000211C0530FFF7BCFF280001F061FC0022DF
:1006600000210520FFF78AFF3220002101F046FC1F
:1006700070BD000010B52E4B1A6880239B015340BB
:10068000E022D20113402B4A13602B4B04221A6044
:10069000274B1B68DB05FBD5254B5B689BB25A1EBD
:1006A00092B2F92A40D9254A934222D8244A934249
:1006B00021D8B8229200934224D2743A934223D88C
:1006C000204A934222D8204A934221D8803A93422A
:1006D00020D2283A93421FD2163A93421ED83A3A71
:1006E00093421DD2143A93421CD2F82B1ED92324D4
:1006F00002E0312400E0322419211448FFF7A0FF62
:10070000200010BD3324F7E73424F5E73524F3E760
:100710003624F1E73724EFE73824EDE73924EBE717
:100720002A24E9E73024E7E70024E9E70024E7E7A3
:1007300000C0044000D0044000E004402A0800004B
:10074000690500003E02000012020000A4D08243AE
:100750000003094B1B685840E023DB011840074B9E
:100760001860074B04221A60034B1B68DB05FBD59E
:10077000014B586880B2704700C0044000D004406C
:1007800000E00440D0B5040001F0B2FC06000F0008
:10079000D0231B065A680123A340134211D00A4BF1
:1007A0001A685B68801A9941002905DC01D0002095
:1007B00008E0064B9842FAD9034B1E605F600120A7
:1007C00000E00020D0BDC046400E0020A086010001
:1007D00010B5052000F0DCFB062000F0D9FB072057
:1007E00000F0D6FBD0231B0620229A6220329A62A8
:1007F00040329A627F3A0021052000F0B5FA0122CA
:100800000021062000F0B0FA01220021072000F0AC
:10081000ABFA10BDF0B50B4E840023189B000025E9
:100820009D5123189B00B44663449D60DD608D6834
:100830001D614D685D600B6813432418A400A3512B
:10084000F0BDC046000005400023036043608360A4
:1008500010334360014B83607047C046FFFF0000C8
:1008600083001B189B000B488446634400290DD06D
:100870001020824000290BD00749186842400A40E6
:10088000802149018C4663441A6070470800F0E7F4
:100890000249F2E70C0005400000FFFFFFFF0000E7
:1008A00010B503000A001F2807D841080720084098
:1008B00001211940FFF7D4FF10BD41080320084073
:1008C0000830F5E710B504001F2100F033FA0022CC
:1008D0000021200000F048FA0021200000F044FB35
:1008E00010BD10B507F044FB1A20FFF7EBFF1B20EB
:1008F000FFF7E8FF1C20FFF7E5FF10BD10B5FFF77D
:100900005DFE00F0C5F800F0D7F810BDF0B585B079
:1009100004000E1C1700042100F00CFA1F2C2CD828
:10092000630807251D4001A8FFF78EFF0021301C3A
:1009300002F060FE002812D01249301C02F021FEA5
:10094000011C114802F007FEF421890502F0FEFDAA
:100950008321C90502F015FE02F0AAFE02900B4B9E
:100960000393012201A92800FFF754FF390020005A
:10097000FFF796FF280005B0F0BD630803251D4072
:100980000835D0E700F07F45286BEE4CFF0F0000E4
:1009900010B52448244907F0B5FA0321142000F0CB
:1009A000C9F90321152000F0C5F900220121142006
:1009B00000F0DAF900220121152000F0D5F96420B9
:1009C00001F0AEFA0021032000F0D6F8052001F076
:1009D000A7FA0021032000F0CFF86420002101F0E5
:1009E0008DFA0021032000F0C7F86420002101F0F7
:1009F00085FA0021022000F0BFF80021282000F035
:100A0000BBF800210C2000F0B7F80021062000F010
:100A1000B3F80021012000F0AFF8022001F080FAC5
:100A200010BDC046A00C0020A086010010B504F047
:100A30006BF9FFF756FFFFF761FFFFF7A9FFFFF71D
:100A4000BDFDFFF7C5FE00F05AF800F049F804209C
:100A500000F09EFA032000F09BFA022000F098FAC2
:100A6000D0231B06102058620821596204225A62C2
:100A7000986199619A618022D2029A6180229202E1
:100A80009A61802252029A61543001F049FA10BDF5
:100A900010B5084C0022211C1020FFF737FF002260
:100AA000211C1120FFF732FF0022211C1220FFF72A
:100AB0002DFF10BD00007A4410B5084C0022211C07
:100AC0000420FFF723FF0022211C0320FFF71EFF55
:100AD0000022211C0220FFF719FF10BD00007A44FC
:100AE00010B5132000F054FAD0231B068022120305
:100AF0009A6201220021132000F036F910BD10B5D2
:100B0000082000F045FAD024240680235B006362AD
:100B1000A361092000F03CFA80239B00A36210BD72
:100B200000B585B00F226A4410700448002300937A
:100B30000133272107F010FA05B000BDA00C0020FA
:100B4000D0B504009626B60000273000390001F029
:100B5000D5F904202043C0B2FFF7E2FF300039008E
:100B600001F0CCF9042320009843FFF7D9FF3000AF
:100B7000390001F0C3F9D0BD70B50F2305009D43C6
:100B80006DB249B20D4308231D43EDB2000101438C
:100B90004CB21C43E4B22800FFF7C2FF2800FFF765
:100BA000CFFF2000FFF7BCFF2000FFF7C9FF70BD9B
:100BB00010B50121FFF7E0FF10BD10B500210120A5
:100BC000FFF7DAFF10BD10B5002805D18031C8B29B
:100BD0000021FFF7D1FF10BDC031F8E710B50400C8
:100BE00002E00134FFF7E4FF20780028F9D110BDBE
:100BF00070B500240BE0074BA200D558280000F088
:100C0000C7F90123AB40D022120653620134032CF2
:100C1000F1DD70BD60910010094B01221A70094B83
:100C200000221A70002308E0074A9900895801221F
:100C30008A40D02109068A610133032BF4DD704715
:100C4000511D0020551D002060910010F0B5C646D2
:100C500000B507000C00151C2E4B1B78012B17D07C
:100C6000FFF7C6FF2B4B01221A702B4B00221A7084
:100C70008221C905281C02F084FC02F0E7FC060072
:100C80002100264801F004FE80460025002431E0C2
:100C9000234804F040F807E0224804F03CF8FFF74E
:100CA000BBFF214804F037F880BCB846F0BDD02126
:100CB00009068B610132032A0EDC1C4B9100C858D7
:100CC0001B4BA1005B18995C012383400029EED0E7
:100CD000D02109064B61EDE7002F13D10134E31752
:100CE0005B0FE41807221440E41A4046002101F08B
:100CF00005F90135B542D2DA074B1B78002BCBD171
:100D00000022D8E70734E3175B0FE41807221440EA
:100D1000E41AEAE7551D0020511D002040420F0053
:100D200088820010A4820010C08200106091001020
:100D30007091001010B58300084A9A181468402278
:100D4000544080322240064CA44663441A60C000DE
:100D5000044B9C466044416010BDC04604C0014045
:100D600004D001400040014080000C4B9C46604490
:100D700000290ED00823002A0DD004221343026854
:100D800053400C2213408022520194466044036079
:100D900070470023EFE70022F0E7C04604C001409F
:100DA00070B50400D0231B061D680D4BAA00D35854
:100DB000002B0AD0002803D0094BAD00EC5070BDC9
:100DC00008490D2000F0B8FBF6E70028F7D0044BE7
:100DD000AD00E850034900220D2000F0A1FAEEE733
:100DE0005C160020C90E0010072303409B00C008BA
:100DF00099403C308000014BC15070470040014099
:100E0000F8B507000D0016001C00FFF7EDFFFB080A
:100E10009B00E4180720384080008540002E05D054
:100E200080239B019C4664442560F8BDC0239B0140
:100E30009C4664442560F8E770B5002A0FD0D023A3
:100E40001B061C680F4BA500EB58202810D400236C
:100E5000DB0704D40C4BA400E358002B0AD0D023AA
:100E60001B061B68002B0BD0084BFFF7C9FF70BD9A
:100E7000C340EDE7064B074A0748BE2103F00AFED0
:100E8000064BF2E7141B00205C16002030410140A5
:100E90005883001090910010088300100041014019
:100EA00070B505000E0014001800FFF779FF22004E
:100EB00031002800FFF7C0FF002C00D170BD0121D8
:100EC0000D2000F0D7F9F9E7F0B5D6464F46464673
:100ED000C0B5D0231B061F681F4BBA00D3589846D5
:100EE000002F03D01D4B9946002626E01C4B994647
:100EF000FAE7EB40DB0714D524090135002C1BD0A1
:100F000033000833AB4217D90F231A002240924610
:100F10002342F1D0134BBA00D358202DE9D400233B
:100F2000E8E751462800FFF75FFF4346002BE3D078
:100F300051462800C047DFE708361D2E06D8F308C3
:100F400008339B004A469C583500D7E7E0BCBA46B8
:100F5000B146A846F0BDC0465C16002030410140B5
:100F600000410140141B0020002906D08000064BE0
:100F70009C4660444023036070478000034B9C46BE
:100F8000604440230360F7E704E0014004F00140BF
:100F900010B501238340D02212069362936105218C
:100FA000FFF7C8FE10BD000010B58023DB051868F0
:100FB00003051B0D0B4A934207D10B4B03408022C4
:100FC0009201934207D1000F10BD084B084A09480F
:100FD000222103F05FFD084B054A0648232103F058
:100FE00059FDC0462709000000F0FF0FB083001034
:100FF000A8910010D4830010248400100FB400B511
:1010000083B0084803F087FE049B002B07D005A996
:101010000191180003F08EFE034803F07CFE0120CE
:1010200003F032FD3884001048840010EFF3108084
:1010300072B6034B1B68002BFBD0BFF35F8F70476A
:101040002C0100D0BFF35F8F024B00221A6080F3A7
:10105000108870472C0100D0F8B506000C00150070
:10106000FFF7E4FFE308F718F15C072222400123B1
:1010700093400B4205D1DBB20B433B70FFF7E2FF1D
:10108000F8BD21002800FFF7B9FFF0B583B00600D6
:10109000019114001F00FFF7C9FF00E00134BC42BA
:1010A0000CD8E308F518F35C0721214001228A409F
:1010B0001A42F3D1D2B21A432A7001E001246442E9
:1010C000FFF7C0FF002C02DB200003B0F0BD019B46
:1010D000002BF9D00898FFF791FF0000054A10781F
:1010E000431CDBB21370172B02D9130010221A70A5
:1010F0007047C046C80B002010B582B00100054CF7
:10110000054B00931F2318222000FFF7BEFF02B0FB
:1011100010BDC046741600204C840010002307E068
:10112000054A9A189200BFF35F8F002111600133C6
:101130001F2BF5D97047C04640000034074B9B6811
:10114000103080001950BFF35F8FBFF35F8F044BE7
:101150000021196082F310887047C04600ED00E05E
:10116000240100D00048704700E400E010B5FFF70C
:10117000F9FF002302E0034A04C00133072BFAD928
:1011800010BDC0468080808010B50388DA0A1C2A12
:1011900005D15B055B1502335B00C01810BD034B26
:1011A000034A10210348FF3103F074FC68840010E7
:1011B000089200108084001010B5091A0B1F0A4A0B
:1011C00088180A4A904208D8C90706D45B105B0504
:1011D0005B0D0748184380B210BD064B064A02213A
:1011E0000648FF3103F056FCFC070000FE0F00002C
:1011F00000E0FFFFD0840010FC91001080840010FC
:1012000010B5091A04394A08090B08D14905490DD6
:10121000064B0B430380064B1343438010BD054B25
:10122000054A0A210548FF3103F034FC00F0FFFFB6
:1012300000F8FFFF00850010D89100108084001096
:1012400001238340034A10681840431E9841C0B2EE
:101250007047C04600E100E0002A05D0044BC022E0
:101260005200995019607047014A8023D150FAE723
:1012700000E100E010B50A001F230340012199405E
:101280004009FFF7E9FF10BD01238340014A1360C5
:101290007047C04600E200E0024B9B6810308000BF
:1012A000C058704700ED00E010B5FFF7F5FF0028CB
:1012B00005D0054BC01A2F2803D8012010BD0020EF
:1012C000FCE70020FAE7C046CC0B002070B5040014
:1012D0000D00EFF3108672B60C4B1B68002BFBD091
:1012E000BFF35F8F2000FFF7D7FF094B984201D073
:1012F000A84205D1320029002000FFF71FFF70BD72
:10130000044B054A0548E12103F0C4FB240100D049
:10131000CD01001010850010309200108084001064
:10132000F0B5DE4657464E464546E0B589B08146A3
:1013300001911500EFF3108B72B66F4B1B68002BF9
:10134000FBD0BFF35F8F6D4B00269E57002E40DB16
:101350007400A419A4006A4824180622A256674BF8
:101360001A70684B9A684B4610339B00D3589846C6
:101370001B1A2F2B3BD9644B984531D105AF634BDA
:101380003B80634973009A46981980005C4B9846ED
:1013900040440230FFF710FF78805E4BBB80FF2394
:1013A000BB71FD71019B0793330053449B00434481
:1013B00007CF07C301231C43A0465A46414648466F
:1013C000FFF7BCFE09B0F0BCBB46B246A946A0463A
:1013D000F0BD514B514A6E215148FF3103F05AFB89
:1013E000504B4E4ABA214E48490003F053FB0123AB
:1013F00042469A439246101A0C2101F049FA0029FC
:101400000FD153460027DA79AA4212D9062159563C
:1014100000290DDB4A005218920039491F008B1831
:10142000F1E7414B3D4A86213D48FF3103F032FB55
:101430001F00002F2ED005AB3C4A1A80813A5A80FB
:101440000623FB560293002B17DA394805AB9A4660
:101450009880029A9A71DD71019A0792381D2100D5
:10146000FFF7AAFEB880BE71254B72009219920058
:101470009B18524613CA13C39FE7381DFFF784FE1B
:1014800001007000801980001D4BC0180430FFF768
:1014900093FEDBE705AF1D4B3B801D4973000293B4
:1014A0009B199B00164A90461A0042440392901CD6
:1014B000FFF782FE7880039A101D5146FFF77CFEED
:1014C000B8801C4B52464146521A524153431B0DA1
:1014D000BB71FD71019A0792029B9B199B004344CB
:1014E00007CF07C3114B52461380813B5380012322
:1014F0001C43A04661E7C046240100D0521D0020D5
:10150000CC0B002000ED00E0CD01001000A1FFFF9A
:10151000FC0B002001BDFFFF488500101892001051
:10152000808400107085001098850010014800002C
:1015300001BD0000AAAA0000F0B5CE46474680B51E
:1015400083B006000D00EFF3108872B64F4B1B6896
:10155000002BFBD0BFF35F8F4D4B9A6834001034E3
:10156000A300D7584B4B9F4207D0AF4200D18AE02F
:101570000197494BFB1A2F2B09D9424639003000FD
:10158000FFF7DCFD03B0C0BCB946B046F0BD30008B
:10159000FFF756FE814600213000FFF76BFEBFF3D8
:1015A0005F8FEFF30581002901D08C4211D1012317
:1015B000019C9C430020A3689D4212D00622A256A3
:1015C000002A0DDB53009B189B00334A2000D418DF
:1015D000F1E7324B324AF4213248FF3103F05AFA34
:1015E00020009D4249D106256557002D2BDB2A4B53
:1015F0006A00521992009B189A68A260DA79E27127
:101600009B795BB2A371002B0FDA2748A080224B95
:101610006A00521992009B18244A1178997115702A
:1016200049463000FFF726FEA7E768004019800012
:10163000194BC0180430FFF7A7FD0100231D180047
:10164000FFF7BAFDE2E7002912D100280ED0FF23F0
:101650008371174B838015490B78A3710E4A154B84
:10166000A41A644163431B0D0B70D9E7094FF2E7DD
:101670001149201DFFF7C4FDD2E7104B084A094865
:101680000F4903F007FA034F77E7C046240100D063
:1016900000ED00E0CD010010CC0B00201C860010F6
:1016A000E89100108084001001BD0000521D002050
:1016B00001BDFFFFAAAA0000060C00205086001002
:1016C00035020000F8B5012202432C4BD31A2F2B10
:1016D00028D8EFF30583002B2AD0EFF3108472B6DD
:1016E000274909680029FBD0BFF35F8F234D2549A7
:1016F0000600761B76417143090D4DB22249896877
:101700009B00C958914219D00021032930D81B4BA6
:101710004A00521892009B189B795BB2AB421DD0D5
:101720000131F2E7194B1A4A1A481B4903F0B2F982
:101730001A4B174A17481A4903F0ACF9124A926833
:101740001849D150184B1A7882711D70BFF35F8F02
:101750000B4B00221A6084F31088F8BD074B4A0037
:101760005618B6009E19FF27B771104AB280E9E7F4
:101770000F4B074A07480F4903F08CF9CC0B0020A8
:10178000240100D0AAAA000000ED00E05886001055
:10179000BC910010808400106E0200008086001052
:1017A00071020000CD010010521D002001BDFFFF9D
:1017B0008C8600108202000010B582B00100074C38
:1017C000074B0093052300222000FFF75EFC002852
:1017D00001DB1F23181A02B010BDC046571D0020A0
:1017E00094860010024B9C4661448900016070475A
:1017F0004000003410B50400FFF770FC0100200029
:10180000FFF7F0FFFF232371BFF35F8F10BD10B50B
:101810000400FFF763FC01002000FFF7E3FFFF2354
:10182000237100236371BFF35F8F10BD10B50D4CA2
:1018300009E00D4B0D4A0E481A2103F02BF9200048
:10184000FFF7D8FF08340B4B9C4209D22368002BCA
:10185000F5D0012BEDD12000FFF7D9FF0834F2E7D6
:1018600010BDC046A80C0020B08600107092001079
:10187000D0860010B80C0020034B9C4661448900C0
:101880000160BFF35F8F70474000003410B5040063
:101890000120FFF731FC01002000FFF7EDFF10BD34
:1018A00000040843704700000A4B1968EFF31083E7
:1018B00072B60A68002AFCD0BFF35F8F054A12682F
:1018C000BFF35F8F0021116083F3108840BF0020B9
:1018D00000217047281D0020F0B5DE4657464E46D1
:1018E0004546E0B583B0EFF3058303221A4000922A
:1018F000B04B9200D35898461B78009A934207D178
:101900000123009A93401A000193AB4B1A6015E132
:10191000AA4BAB4AAB48922103F0BCF843465A6944
:101920004B465B004B44DB0093469B445B469E6802
:10193000DF68A54800F0AAFB801BB941002900DA46
:1019400006E1002F60DB5B461C69A04B9C4245D042
:1019500043460820185E5B46598889B2FFF7A0FF0E
:101960005B465969A04704000D0023002B434BD070
:10197000002D3DDA30003900001BA9415B4698601C
:10198000D96000241C5F002C00DAE1E043465A696C
:10199000924663001B19DB0053449A68DB6805001C
:1019A0000E00AD1A9E41002E00DAD1E043461C81A4
:1019B00047460837BC46634600255D5F002D1DDBAA
:1019C0006C006419E4005444A268E36806000F0048
:1019D000B61A9F41002F11DBA446ECE75B465C6919
:1019E00023692000984700280ED065682468BCE76A
:1019F000754800F04BFB00196941BFE75B461D804D
:101A00004B4662461380A3E05B4600229B5E424643
:101A100013811269EFF3108372B611680029FCD0AC
:101A2000BFF35F8F42460221525E59460A8042460A
:101A3000494651801269BFF35F8F0021116083F323
:101A4000108885E043461969EFF3108372B60A687F
:101A5000002AFCD0BFF35F8F4246928812B29146B3
:101A60000122524241468A800A69BFF35F8F0021FA
:101A7000116083F310881AE09B465B4600229A5E51
:101A8000002A0BDB53009B18DB0053449868D9688D
:101A900026002F00361A8F41002FEDDA4B465946AB
:101AA0000B80634600215B5E994663461A804B4675
:101AB000002B53DB43465A6992464B465B004B442E
:101AC000DB009C46D44463469C68DD684646083685
:101AD000B346D2E70023424693714146083143465C
:101AE0000820185E11E001225242D317A260E36081
:101AF000434608229B5E834206D00D80434608225F
:101B00009B5E2380434618812800431C2AD043460D
:101B10005A6943001B18DB00D418D55E63881BB2DA
:101B2000002BE0DB2100EFE76B1C2AD1264800F0F8
:101B3000ADFA241A8D41002D34DC31D0224B019AAC
:101B40005A63434608229B5E9946002B00DBE5E67C
:101B500043469B881BB2002B00DB73E743469B790F
:101B6000002BB7D1434608229A5E002A1ADB43466F
:101B7000596953009B18DB00CB189C68DD68631C17
:101B8000D2D011498A6AA01A009B04339B005B588B
:101B90009B1A9842CAD2009B04339B005C50C5E755
:101BA000002CCBD040BF03B0F0BCBB46B246A94628
:101BB000A046F0BD041B00203C7005406C8700105F
:101BC0009C9200109887001000400540D918001022
:101BD00070B504000D0011000126AE400662280019
:101BE000FFF774FB01212800FFF744FB024B9C46E2
:101BF0006444266070BDC04638200000F8B5CE466B
:101C0000474680B50600894690461F00C160FFF731
:101C100065FA154B9C466044800030614346337042
:101C2000BBB27381D0221206127872700122524226
:101C30003281B2809B187380002406E0621E7369B3
:101C400065002D19ED005A530134BC42F6D3074B01
:101C500042469200D650064A41464846FFF7B8FF32
:101C6000C0BCB946B046F8BD40000034041B00209B
:101C7000D918001010B5064B1B69002B01D0044881
:101C800010BD044B044A0548652102F003FFC0461D
:101C9000140C0020E0870010849200109887001038
:101CA000F8B504000569EFF3108072B629680029C1
:101CB000FCD0BFF35F8F0221665E656971008919F0
:101CC000C9006D18002E02DB0027E95F61802169E1
:101CD000BFF35F8F00270F6080F31088002E2CDB8E
:101CE0000699296107996961AA60EB606B880133E5
:101CF0005B04590C002B00D1012169803000FFF7F3
:101D0000CFFD2169EFF3108372B60A68002AFCD078
:101D1000BFF35F8FA2882A80A6802269BFF35F8FFE
:101D20000021116083F31088E368217801228A4042
:101D300003498C4663441A60F8BD01204042FBE72A
:101D40003C20000070B582B0060014001D0008ABF6
:101D50001B78002B07D100F0CBF922002B00121AC0
:101D60008B41002B0ADB079B0193069B009322000B
:101D70002B003000FFF794FF02B070BD0020FBE79E
:101D8000F0B5C64600B584B00500884616001F00B1
:101D90000AAB1C78FFF76EFF0294019700962A00A9
:101DA0004346FFF7CFFF04B080BCB846F0BD00004B
:101DB00030B5030008145A8990422EDA5C6942005B
:101DC0001218D200A2181D69EFF3108472B62868A9
:101DD0000028FCD0BFF35F8F508880B20904090C43
:101DE000884212D000201A69BFF35F8F0021116072
:101DF00084F31088002811D0DA681B7801319940EB
:101E0000074B9C466244116008E00649014389B2D1
:101E1000518001229A710120E5E7002030BDC046C3
:101E20003C2000000080FFFF10B50400FFF722FFF8
:101E30002100FFF7BDFF10BD40787047F0B583B0BB
:101E400006000F00EFF30583002B1AD1062464422D
:101E5000E517A4197D418D4202D803D1844201D9EE
:101E60000024002500F044F922002B00121A8B41B7
:101E7000002B0BDC08D03000390000F04BF903B028
:101E8000F0BD1A48FFF7BAF8002AF4D0184A002328
:101E9000009320002900FFF773FF002818DAEAE713
:101EA000002300E00023002BE5D1124B1968EFF36B
:101EB000108372B60A68002AFCD0BFF35F8F0D4A08
:101EC0001268BFF35F8F0021116083F3108820BF79
:101ED000094B5B6A9D42E5D80749896AA14203D252
:101EE0009D42DDD00123DEE70123DCE704880010FA
:101EF000A9180010281D00200040054070B50400FE
:101F00000D0000F0F5F800196941002902DBFFF728
:101F100095FF70BD012040420049F8E7FFFFFF7FB9
:101F200010B5FA2292000023002101F0EDFAFFF72C
:101F3000E5FF10BD70B582B005000C00EFF305831E
:101F4000002B12D03A4B5B6A8B4209D3384A926A13
:101F5000824208D28B4201D0012002E0002000E042
:101F6000002002B070BD0120FBE7FFF783FEC168CF
:101F700003788A6A2E00A81A04339B005B589B1AC8
:101F8000984212D320BF2A4B5B6A9C4209D8284A48
:101F9000926A954207D99C4201D00120E1E70020D6
:101FA000DFE70020DDE70120DBE7224A0023009382
:101FB00028002100FFF7E4FE00280BDD1C4B5B6AC4
:101FC0009C421BD81A4A926A954229D99C4213D046
:101FD000012314E0164B5B6A9C4209D8144A926AAA
:101FE000954207D99C4201D00120BAE70020B8E70A
:101FF0000020B6E70120B4E7002300E00023002B17
:1020000000D120BFFFF710FF094B5B6A9C420BD841
:10201000074A926A964209D99C4203D00120A0E760
:102020000123ECE700209CE700209AE7012098E7D5
:1020300000400540A91800100048704700400540C6
:1020400010B50B4B1B69002B04D00A480A21FFF77F
:10205000C9FB10BDFFF7F0FF0400032100F00CF8EE
:102060000348102303222100FFF7C8FDEDE7C04617
:10207000140C0020281D002010B5024A0248FEF76B
:10208000EBFF10BD54880010781600200200436A50
:10209000906A1900536A9942FAD17047416A00E088
:1020A000416A9942FCD300E0416A994202D1816AB7
:1020B0009142F9D37047F0B5C64600B5804614008A
:1020C0001D00FFF7E3FF06000F0022002B0092190E
:1020D0007B41994202D804D1904202D90122524256
:1020E000D3174046FFF7DAFF80BCB846F0BD0000CA
:1020F00010B50248FFF7CAFF10BDC04600400540BA
:1021000010B502000B000248FFF7D5FF10BDC04616
:102110000040054010B502000B000248FFF7BEFF6B
:1021200010BDC04600400540074B98420AD0162318
:1021300001229A40054B1A60054B1B681100994318
:10214000FAD170471723F3E70080034000F0004006
:1021500008C0004070B5046BE30701D4200070BDD7
:102160000B4BC3180B4A1A60456A836AAD01ED1820
:10217000AD02062000F016F9074900F089FB0100C6
:10218000280000F085FB0021FFF7BAFFE6E7C04614
:1021900030300000010300004E0E000070B5040056
:1021A0000E001500FFF7D6FFE36A5E403540024B94
:1021B000E3181D60206370BD2C10000070B5050091
:1021C0000C00062000F0EEF8C000210000F060FBDB
:1021D0000130C60907D00E4B9E4215D84008340086
:1021E0003F26064000E001246C62AE62002200211E
:1021F0002800FFF7D3FF062000F0D4F88000A101EB
:10220000891900F045FB70BD0026024CECE7C04682
:10221000FEFF0000FFFF0000002909D00A22064B44
:102220009C46604443425841044B4000C2527047B0
:1022300080225200F3E7C0460080FCBF341D00201E
:1022400070B504000D00062000F0ACF800281ED088
:10225000104B9C421CD01622012393400E4A13605F
:102260002000FFF761FF00212000FFF7D5FF2900C4
:102270002000FFF7A3FFE26A70235A400E33134099
:10228000064AA2181360064B23630323A36470BDA0
:102290001722E1E70080034000E000402C1000001E
:1022A00001030000F8B5D646474680B506000D008C
:1022B0001700984644002418A400294B9C46644407
:1022C0006368089A934200D26260331FDBB29A4679
:1022D000012B2ED980221201C0239B01E3181A6022
:1022E000204BB200D158002907D0586900F0D0FA2D
:1022F000013043001B18033BFDD27F0123685F4080
:10230000E0233B4080225201A21813605346012B68
:102310001AD980239B01E318802212011A60089BBE
:102320006360104BB6004246F250C0BCBA46B0469D
:10233000F8BD012DCED10322C0239B01E3181A6002
:10234000A368DB07FCD5D8E72168694003230B406D
:102350001360A3680122AA401A42FAD0D9E7C04606
:10236000008000407C160020F0B583B005000E0010
:1023700017001800089900F08BFA0300089A14025D
:1023800000943A0031002800FFF78CFF03B0F0BD45
:1023900010B582B0802464000094FFF783FF02B080
:1023A00010BD0000014B8000C05870477C16002013
:1023B000F0B5C64600B504000E0017001D003748F2
:1023C00000F066FA8046364BFA18364B9A4239D8F6
:1023D0000100380000F05CFA0200103A98235B001C
:1023E0009A4235D86B1E062B38D8069B013B062B2C
:1023F00034D83F09474537D32D04069B1B031D43A3
:102400002368002B36DB284B9C4244D00C2201234E
:102410009340264A1360264A1360264A1268190020
:1024200091430A1EF9D12660A060234BE3182132A4
:102430001A602268002AFCDAE56008221A6080BC73
:10244000B846F0BD1D4B1E4A1E48112102F022FB6A
:102450001D4B1B4A1B48192102F01CFB1B4B184A41
:1024600018481C2102F016FB194B154A1548232168
:1024700002F010FB22683F231340B342C3D1A3688C
:102480001B051B0D8342BED1E368EE22D20213402E
:10249000AB42B8D1D3E70D22B9E7C046001BB70065
:1024A00080E84BD380F8A93200C0024000E0004031
:1024B00000F0004008C000400430000078880010A0
:1024C000B4920010C88800101889001034890010D8
:1024D00080890010024B1A68024B5A607047C04650
:1024E000DC1A00200080054010B5184B8022D20570
:1024F0001A60174B174A1A6000290AD0164BE022BF
:10250000D2041A60002809D1134B802212061A60E7
:1025100010BD0E4BE022D2041A60F3E743011B1AF0
:102520009B001A18D2000D490A60181800010860B3
:1025300080235B04984201D3094A0A60FFF7CAFF6F
:10254000054B8022D2051A60E2E7C04600B0054084
:1025500008200140FCFF010000A00540DC1A00201B
:10256000FFFFFF0010B5030010000C4A8024E405B3
:102570001460002B0DD001221343094A094CD46189
:10258000094C5C401462516293620021FFF7ACFF7A
:1025900010BD034B0022DA61F7E7C04600B00540EA
:1025A00000800540D3C007B02D3FF84F80239B002B
:1025B0000B43014AD36270470080054010B501000B
:1025C00018231B8814221088984710BD10B50100ED
:1025D00018231B8816221088984710BDF0B5C646F0
:1025E00000B507000E0000250123984600E00135E4
:1025F000B5420AD2AC003C192068FFF7DFFF20602B
:102600000028F4D100239846F1E7404680BCB84644
:10261000F0BD000070B504000D000648FFF7CEFFC6
:102620000300002C03DB0120A04029009847002074
:10263000FBE7C04655420000064BAA2212011A6071
:102640002F22DA60044B054A1A60024B5B68002BAC
:10265000FBDA7047004002400060024000B0FA0020
:1026600010B5040001E008CC9847024B9C42FAD315
:1026700010BDC0462C8200107047000010B5024803
:10268000FFF7EEFF10BDC046F081001010B5024804
:10269000FFF7E6FF10BDC04624820010054B064A36
:1026A0001A60064B064A1A60064B1A68044B93439D
:1026B000FAD1704700E00040BFCDFBFE00F00040C3
:1026C000FE7F3C0008C00040044BDB6C002B03D1B4
:1026D000034B8022D2021A607047C046000011509E
:1026E0004C201150044B054A1A60054B1B68DB4314
:1026F000DB01FAD17047C04600F00040FFFFFF0148
:1027000008C00040034B40229A675A671A67DA668E
:102710007047C04600F0014010B5FEF7FFFC10BD49
:1027200070B5044DA968044CC022200001F09CF84B
:10273000AC6070BD00ED00E00000002070B504202A
:10274000FFF730FE064900F0A3F805000024002C36
:1027500000DD70BDE0B22900FFF728FF0134F6E785
:1027600040420F0030B583B0274B00229A67FFF735
:1027700063FF264B01221A60234B5B6C012BFBD1BC
:10278000234B03221A60204B9B6B012BFBD101339F
:10279000009304331F4A01211F48FFF709FE052358
:1027A00000931E4A01211E48FFF702FE1D4B002226
:1027B00002210420FFF7ECFD1B4D2B00002201211C
:1027C0000520FFF7E5FD194C23000022002107201A
:1027D000FFF7DEFD2300002200210820FFF7D8FDCF
:1027E0008023DB0000932300002200210920FFF753
:1027F000BBFD2B00002200210620FFF7C9FDFFF7DB
:102800009DFF03B030BDC046008000403CB000409A
:1028100030B00040002F685900800240008C86478D
:1028200000C00240001BB70040597307006CDC0277
:1028300001480421014B1847300C0020DD25001011
:10284000124A936F9B0815D29066D166002905D075
:10285000FFE7FFE7FFE7516F106F704704B5802176
:102860000906C2175140002800D0C84305F080FC7B
:10287000002104BDF0B5146E556E576F166FFFF74B
:10288000E3FF1466556657671667F0BD000000D079
:10289000114A936F9B0813D210665166002905D028
:1028A000FFE7FFE7FFE7516F106F704704B500289F
:1028B00001D00020C04305F05BFC002104BDC046F0
:1028C000F0B5146E556E576F166FFFF7E5FF14667F
:1028D000556657671667F0BD000000D094464A4A17
:1028E000926F9208624601D228E0C046F0B5464E8B
:1028F000346E756E776F366F00F020F89446424A5A
:1029000014665566576716676246F0BD94463E4AA0
:10291000926F9208624601D254E0C046F0B53A4E3A
:10292000346E756E776F366F00F04CF89446364A09
:1029300014665566576716676246F0BD002B24DBA8
:1029400011D000293EDA00B5C943404200D101311F
:1029500000F038F8C943404200D10131DB43524214
:1029600000D1013300BD002AEBD1002801D100299C
:1029700005D00020C90FC90701D1C043410800B5E7
:1029800005F0E6FB0022002300BD00B500290ADBAC
:10299000DB43524200D1013300F014F8C9434042F6
:1029A00000D1013100BDC943404200D10131DB43B8
:1029B000524200D1013300F005F8DB43524200D10E
:1029C000013300BD002923D1002B18D1002A0CD0DF
:1029D000BC460D4F38667A6600210023FFE7FFE70B
:1029E000FFE77A6F386F67467047002801D00748C5
:1029F000010000B505F0ACFB0022002300BD020081
:102A00000B00002000217047000000D0FFFFFFFFF7
:102A1000002B00D0BFE0130C28D1002AE7D080B4EF
:102A2000114F39667A66FFE7FFE730B4040C7B6F1D
:102A3000396F1B0423433B667A66FFE7FFE7FFE736
:102A4000C04684B27B6F3D6F1B0423433B667A66AE
:102A5000FFE7FFE7C04600232C042D0C7A6F386F88
:102A600000196941B0BC7047000000D0F0B5944631
:102A70000025140E01D112020835140F01D11201E4
:102A80000435940F01D192000235D40F01D15200C8
:102A90000135D40B0134254F7C66254C3C660E0C69
:102AA00093B2FFE7FFE7FFE73C6F6643360C77031F
:102AB000BE467343DF0B5B04C01AB941130C73436A
:102AC000DB18C91ACE086643360CB64493B273437A
:102AD0001F0F1B01C01AB941130C73431F0B1B05B9
:102AE000C01AB941860D8F023E436643360C092D4C
:102AF00024DB520A7243801A7703460A6643360C77
:102B000016235B1BDE40DF40BF1964466643821B11
:102B10007046043506330100D940A840C01900D3DF
:102B20000131A24206D20023F0BD0000000000D017
:102B3000FFFFFFFF121B0130F3D3F1E709277F1BD3
:102B4000FE406446A2B27243801A00D20139220CC0
:102B50007243130C1204821A99410B00704604351B
:102B600013370100F940A840801900D30131002B30
:102B700002D1A2420AD2F0BD013000D30131121BB2
:102B8000FAD2013BF8D1A24200D2F0BD013000D30D
:102B90000131121BF7E7F0B51C0C00D080E00CB43B
:102BA00000251C0A04D11B02160E334312020835FD
:102BB0001C0B04D11B01160F3343120104359C0B6F
:102BC00004D19B00960F334392000235DC0B02D1F7
:102BD00092185B4101351C00971864410134464F3F
:102BE0007C66464C3C660E0CFFE7FFE7FFE7C046FD
:102BF0003C6F6643360C7703BE4697B27743C01BE3
:102C000000D20139C01B00D201399FB27743C91BE2
:102C1000C91B170C77437E04FF0B801BB941CE08FC
:102C20006643360C0C2D33DBB644120B1F053A43BA
:102C30001B0B97B27743C01B00D201399FB2774379
:102C4000C91B170C77433E043F0C801BB941860D0E
:102C50008F023E43664329277F1BFE400C3D77468B
:102C6000AF40BF1930BCA2B2ABB272437343801AFB
:102C70009941220C7243130C1204801A99410200EC
:102C80000B000137001BA941F9D2781E0021F0BDCD
:102C90000C277F1BFE4077467F0BAF40FF19E0E714
:102CA00000245D1C07D0144F7D663966FFE7FFE7FF
:102CB000FFE7FFE73C6F95B29EB265436643401B5A
:102CC000B141150C1E0C6543664336042F0C3E4380
:102CD0002D04401BB141994204D202000B00200098
:102CE0000021F0BD01D19042F7D3801A99410134FF
:102CF0009942F2D3F6E70000000000D0FFFFFFFF8B
:102D000048404140484018B41B4B5B68FC46019367
:102D100008BD04DFDB2F001018B4174B1B68FC46FE
:102D2000019308BD00DFE52F00109446134A926F0F
:102D3000920809D2624618B40F4BDB68FC46019337
:102D400008BD0CDF9D3200100C4AF0B5146E556EB4
:102D5000576F166F6246FFF7EEFF084A1466556616
:102D600057671667F0BD18B4034B9B68FC46019388
:102D700008BD08DF41310010241B0020000000D0F6
:102D8000FFB550404240504059404B40594000E050
:102D9000FFB5154F4C00640D03D0BC4204D10C03A9
:102DA00014D80020090D09055C00640D03D0BC4255
:102DB00004D11C030AD800221B0D1B0501264B4021
:102DC00009D44B4003D58B4200D18242FFBD9942CA
:102DD000FCD19042FFBD0B43DB1803431343F5D0F6
:102DE000C9434918FFBD0000FF07000000B5FFF709
:102DF000CFFF804100BDC04600B5FFF7C9FF01D934
:102E0000002000BD012000BD00B5FFF7B9FF01D9CA
:102E1000002000BD012000BD00B5FFF7B1FF8041DB
:102E200000BD012040054A00121804D85A001218AB
:102E300001D80020704701207047000000210028C1
:102E400005D17047C1174840401AFAD0C90713B5D9
:102E5000064B1B6898470CBC441CA2401005120B83
:102E60000349091B09051943114310BD241C002007
:102E70001F04000010B54C00620D8023D218DB0047
:102E8000D21A5B057E2A10DD9E3A13DACC170903AD
:102E9000490819435242D140640001341532202AB6
:102EA00005DAD0400843604310BD002010BD08463D
:102EB000604310BDC80FC018013810BD18B4044BD2
:102EC0005B6AFC46019308BD24DF4D34001000000E
:102ED000241B002070B513231C78012C12D0012C68
:102EE00012DC214B214A93642148FFF767FB214BF9
:102EF000186070BD1C491D4A9800815001331F2B7A
:102F0000F8D9ECE70023FAE71B48FFF75FFB050061
:102F10001A48FFF75BFB023803789B007F2B09DD23
:102F200012488022290000F09FFC022C08D0022CBD
:102F3000DADCD6E7124B134A1348332101F0AAFD1D
:102F4000124B1A88B5231B029A4209D1104B1A88DA
:102F5000104B9A4204D1104B1A88104B9A42E6D07B
:102F60000020FEF74BF8C046A12F0010241B0020C4
:102F70004C330000241C0020534400005346000042
:102F80009C890010C0920010E089001054380000A5
:102F9000D8380000494600009C380000594600001F
:102FA00007B56046002800D100BE01880A0A023039
:102FB000DF2AFAD1C9B2820804D30288408800040B
:102FC000104300E00068024A5050039007BD000023
:102FD000241B00200FB403BC0CBCF0B50124E40793
:102FE000634000E0F0B50C0DCF0F661E3605891B5F
:102FF000640503D3C943404200D30131640D03D0BB
:10300000661CF60A07D0E41B00207F00791C8907A4
:103010008912803C24031D0DDF0F6E1E36059B1B9D
:103020006D0503D3DB43524200D301336D0D03D052
:103030006E1CF60A07D0ED1B00227F007B1C9B074D
:103040009B12803D2D032F1B661B58D4A446202EB7
:1030500046DA20371400BC401D00BD40F240334129
:103060002A4380185941CB0F05D0C943C0430022E1
:1030700064425041514162464D0D28D10D0D07D19A
:1030800000281FD0241940414941013A0D0DF9D0C3
:10309000640006D3013000D30131002C01D1400877
:1030A0004000013A0BD4941CE40A04D112051144E7
:1030B000DB071944F0BDD907204B194300E0D907BD
:1030C0000020F0BD0029DDD1002CDBD1F0BD0132A4
:1030D000C6074008CD0728434908002EE1D0D9E7AC
:1030E0003C2E29DA203E40371400BC4000D0012499
:1030F000F24014431A00BB401C43D317ACE7AC4664
:10310000202F08DA20360400B4400D00B540F84006
:1031100039412843A5E73C2F0CDA203F4036040014
:10312000B44000D00124F84004430800B1400C43EF
:10313000C117EAE710001900002494E70000F07FAF
:10314000F0B50C0D661E3605891BE60A6405640D94
:1031500002D0651CED0A04D0002001210905803C45
:103160002403A4461C0D671E3F05DB1BE70A64050C
:10317000640D02D0651CED0A04D0002201231B055A
:10318000803C24037740644497B484B296B274437D
:10319000070C7E43150C6F4380B26843361802D388
:1031A000012000043F183004350C00197D4184468D
:1031B00088B29AB250430C0C62431F0C7C438EB20F
:1031C0007E43921902D301263604A4191604170C63
:1031D0003618674101BC81B29AB25143040C624374
:1031E0001B0C5C4380B25843121802D30120000428
:1031F00024181004130C401863412D185E41002060
:10320000474106BC88B293B258430C0C6343120C7E
:10321000544389B251435B1802D301210904641855
:1032200019041A0C091862416D18564100204741D3
:1032300018BCF902720D1143F0026A0D1043ED0241
:103240000A0D03D16D1940414941013B124E9B1BB0
:103250007600B3420ED26D0007D3013000267141D3
:103260006646354301D1400840001B05C918E407F4
:103270002144F0BD0BDA013306D1013004D1013114
:103280004F0D01D04908F2E7E1070020F0BD0136FB
:1032900031050020EBE70000FF030000F0B51C0D36
:1032A000671E3F05DB1BE70A6405640D02D0661C40
:1032B000F60A04D0002201231B05803C2403D025FC
:1032C0002D060026F6432E661E096E66CE0FF619F1
:1032D000B44649004F0D02D07E1CF60A03D00020F0
:1032E0000021403F3F033E1BB600B444013F7F0531
:1032F000C91B49082E6F013676089C02950D25439F
:103300007543ED137543AD1301356D10F603761B50
:103310000CB4CC02450D2C43A2B2B3B25A43270CD5
:103320007B43350C6F43A4B26C431B1902D30124B9
:1033300024043F191C041D0CA4187D4124196D415F
:10334000009A91B2ACB26143170C7C432B0C5F43E3
:1033500092B25A43A41802D301221204BF182204C5
:10336000230C52187B41019C6C431B19520ED9014E
:103370000A434401A01A81B2B2B2514303145A4322
:10338000360C734387B27743D617D21900277E4194
:1033900036049B191704160C7F185E417316ED183E
:1033A000F301002680337541A90F06D16400690A34
:1033B000E8055B0A184309D22FE0042294448033C5
:1033C0007541A90AA8059B0A184326D340414941E3
:1033D0002404009A019B0D005543641B4343E41AE7
:1033E00095B286B27543170C7E43030C5F4392B2CD
:1033F0005A43B61802D301221204BF183204330C08
:1034000052197B4152429C41002C02D400220130CF
:1034100051414008CA071043490802B06246D70725
:103420009210084BD218084B9A4203D21205891801
:10343000C919F0BD0020002A01DC3900F0BD0133BC
:103440001905F5E7FD030000FE070000002200B5A6
:10345000203200F004F8080000BD000000220B1527
:103460000AD410B5944600F031F81414013400DA8F
:103470000021CB17144C20470020002170476244E4
:10348000343A0CD40C2A07DA04009140904052429E
:103490002032D440214310BDD843D94310BD20323F
:1034A00007D40C469440524220321141D040204370
:1034B00010BD0800C917203203D4524220321041F7
:1034C00010BD1800190010BD7F3400100A0DCC0F7C
:1034D000531E1B05C91A520503D3C943404200D3EA
:1034E0000131520D03D0531CDB0A07D0121B002000
:1034F0006400611C89078912803A1203014BD21AB9
:1035000070470000FF03000051434343C9188C4635
:10351000110C83B24B4310B4040C614392B280B2DD
:10352000504362431C041B0C001910BC5941130486
:10353000120CC0185141614470470000484041409E
:10354000484000239C46114B5B68184700239C466B
:103550000E4B1B6818470E4A936F9B0804D200233A
:103560009C460A4BDB681847F0B5146E556E576FD2
:10357000166FFFF7F4FF064A14665566576716671D
:10358000F0BD00239C46014B9B681847281C002077
:10359000000000D007B548404140484001E0C04627
:1035A00007B54200120E03D0FF2A03D1420218D8F9
:1035B000C00DC0054A00120E03D0FF2A03D14A02F3
:1035C0000FD8C90DC9050122414005D4414001D59C
:1035D000814207BD884207BD0143491801D0C0435D
:1035E000001807BD00B5FFF7DBFF01D9002000BDC3
:1035F000012000BD00B5FFF7CDFF804100BD491A95
:10360000002807D108467047C10FC90700D54042BE
:10361000002817D0F44603B40B4B1B68984706BC30
:1036200081409E384042803107D20B0607D04900C6
:10363000490AC0051043084360470130F8E7490ACA
:103640008902F5E770470000241C002041000A0EA3
:1036500080231B067E2A0BDD9E3A0BDAC11740023F
:10366000400818435242D040490001314843704756
:1036700000207047C00FC01801387047C0420DD3FA
:1036800000B540004008002100F012F8002801D4E5
:10369000404200BD8020000600BD0000034BDB69F6
:1036A000FC4618471CDF053800100000281C0020CD
:1036B00000239C46014B5B6A18470000281C002031
:1036C000034BDB6FFC4618477CDF1D380010000001
:1036D000281C002070B513231E782A48FEF776FFB9
:1036E0000500012E11D0012E09DDAB1E1B789B00B9
:1036F0007F2B40DD24488022290000F0B5F82348C4
:10370000FEF75CFF224B186070BD1F485422290051
:1037100000F0AAF81F4B1A881F4B9A421CD1A7230E
:103720009B011A881D4B9A4216D11D4B1A881D4BBE
:103730009A4211D11C4B1A8894239B019A420BD1B7
:103740001A4B1A881A4B9A4206D11A4B1A681A4B0E
:103750009A4201D1152307E01848FDF74FFC184C99
:10376000094A99008C5001331F2BF8D9144B064A93
:103770001362D361B7E7134B134A1448422101F097
:1037800089F9C04653460000281C00204C33000035
:10379000241C0020EE290000C40F0000C20D000010
:1037A000962B0000C0B50000182B0000CC2A0000AA
:1037B00010B50000FC2C000051ED8764448B001014
:1037C000D1370010408A0010D4920010748A001083
:1037D00007B56046002800D100BE01880A0A023001
:1037E000DF2AFAD1C9B2820804D3028840880004D3
:1037F000104300E00068024A5050039007BD0000EB
:10380000281C00200021C2158032803201D0024ADB
:103810001047002070470000CD2A0000C30FDB07CF
:1038200041000A0E07D0FF2A08D00909054A891865
:103830001943400770471900002070470249C91812
:10384000FAE70000000000380000F07F0148042182
:10385000014B1847400C0020DD250010014B1B6870
:1038600018470000400C0020014B5B68184700001F
:10387000400C00209A4200D288547047704710B51F
:10388000002802D00B684968984710BD010000204D
:1038900007E083001B185B00501C08601078C018FC
:1038A00030380A681378303BDBB2092BF1D9704706
:1038B000F0B5DE4657464E464546E0B583B09346E2
:1038C0001F000C9B9A460D9C0E9B99460F9B9B07D5
:1038D00003D0B8460F00060022E00192A3468846B6
:1038E0004E46B9460700B44207D2551C4B464146E6
:1038F0002020B84701342A00F5E73D004F465C46DA
:10390000019B9B46B1464646B84637002E0007E06D
:10391000013C551C5346185D43463900B0472A0008
:10392000002CF5D135003E0047460F9B9B0707D47E
:10393000100003B0F0BCBB46B246A946A046F0BD9D
:10394000B0464E46B9462F005D46531BB342EFD2F8
:10395000541C4B4641462020B8472200F5E7F0B5FD
:10396000CE46474680B585B0944698460C9D0D9C42
:103970000EAB1B789946109A119B129EB7071CD468
:10398000002B0CD0F7070AD54F46002F02D10C3779
:10399000374204D0013B02E030272F5501349442D6
:1039A00001D21F2CF8D9F70707D59C4205D21F2C4E
:1039B00003D830272F550134F5E7F70612D57705E0
:1039C00005D4002C03D0944221D09C421FD00F9AE2
:1039D000102A32D00F9A022A37D01F2C0AD8302250
:1039E0002A5501341F2C05D84A46002A33D02D22EF
:1039F0002A5501340396029301940095434662468A
:103A0000FFF756FF05B0C0BCB946B046F0BD621E18
:103A1000012C10D00F9F102F0BD014000F9A102ADA
:103A2000D8D1B206D6D51F2CD4D858222A55013465
:103A3000D3E7023CCBE71400C9E7B206EED41F2C53
:103A4000ECD878222A550134C7E71F2CD2D860322F
:103A50002A550134C1E7720703D52B222A550134B8
:103A6000C8E73207C6D520222A550134C2E7F0B58F
:103A7000DE4657464E464546E0B593B081468A46F7
:103A8000089209931CAB10CB1B789B461E9D219B73
:103A90009846002C03D1102342469A439046802337
:103AA000DB0046461E4042461A4212D0002C22D06D
:103AB00000260EE03033D9B2771C0AAB99552900A5
:103AC0002000FEF7E5FEAC4216D31F2F14D83E00AF
:103AD000040029002000FEF7DBFECBB2092BE9D958
:103AE0004246920605D54121C918C9B20A39C9B260
:103AF000E2E76121F8E7270043460693209B059300
:103B00001F9B049303955B46029301970AAB0093B6
:103B1000099B089A51464846FFF721FF13B0F0BCB5
:103B2000BB46B246A946A046F0BDF0B5DE465746B4
:103B30004E464546E0B597B00A900B910C929A46D6
:103B4000209B9946219F22AA13789B46249B099388
:103B5000259C289B98464A463A4302D1103293430B
:103B600098468022D20045461540434613420AD06B
:103B70004A463A4341D000252E0053460D934D4608
:103B8000099B9A461BE02E0053460D934D46099B18
:103B90009A4614E03033DAB2731C99460EAB9A554C
:103BA0005246230028003900FEF7B0FEBC4226D85A
:103BB00019D04B461F2B1CD84E4605000F0052460D
:103BC000230028003900FEF7A1FED3B2092BE1D96A
:103BD0004246920605D54122D218D2B20A3AD2B252
:103BE000DAE76122F8E7AA45E3D94E460D9B9A46EB
:103BF00008E04E460D9B9A4604E0002602E04E4641
:103C00000D9B9A4643460693279B0593269B049358
:103C1000099B03935B46029301960EAB00935346B8
:103C20000C9A0B990A98FFF79AFE17B0F0BCBB46A6
:103C3000B246A946A046F0BDF0B5DE4657464E4610
:103C40004546E0B591B0804689460C929A461A9C4A
:103C50001B9D22002B0020002900FFF7E2F800281E
:103C600000D0ECE001225242D44B20002900FFF7A3
:103C7000D3F8002800D0E2E001225242D04B2000CD
:103C80002900FFF7B3F8002800D0D8E00022002375
:103C900020002900FFF7AAF8002800D0E4E00694ED
:103CA00007958023DB001E9A1A400D921E9A1A4235
:103CB00001D106231C930698079902000B00089275
:103CC000099303000A00024300D1D9E0080D400522
:103CD000400DBC4EB44660440A03120B1E00BA4BA2
:103CE00013431F00FFF7AEF8B84AB94BFFF73BF894
:103CF000B84AB94BFFF710F8089009910022B74B6A
:103D000030003900FEF7FFFFB54AB64BFFF72BF83E
:103D100002000B0008980999FEF7FEFFFFF7AAF8CA
:103D20008346FFF78FF806000F00AF4AAF4BFFF74F
:103D30001AF80022AE4BFEF7EFFFFFF79BF8089052
:103D4000AC4AAD4B30003900FFF70DF806000F000C
:103D50000898FFF777F8A94AA94BFFF704F8020083
:103D60000B0030003900FEF7CEFF06000F00020006
:103D70000B00FEF7F8FF0A900B91089BA14A9446AE
:103D8000634400210022089109921B050993002336
:103D9000089332003B0030003900FEF7BDFF0E9063
:103DA0000F9132003B0000208021C905FEF7ABFFD8
:103DB00006000F000022944B0A980B99FEF7B5FFFE
:103DC0000022924BFEF7A8FF02000B000A980B9905
:103DD000FEF7ABFF00228E4BFEF79EFF02000B00AA
:103DE0000A980B99FEF7A1FF02000B003000390082
:103DF000FEF792FF02000B000E980F99FEF795FF59
:103E00000022714BFEF788FF089A099BFEF7ABFF73
:103E100006000F0008960997069A079BFEF7FCFF1D
:103E200000282FD001235B429C46E3440022774BBD
:103E300030003900FEF779FF0890099122E01E9BBF
:103E400004931D9B03931C9B02930094019553467E
:103E50000C9A4946404600F0FFF811B0F0BCBB4652
:103E6000B246A946A046F0BD002100220691079265
:103E7000069480231B069C46AC446346079310E7D8
:103E800000239B465B466333C62B20D804261E9B2B
:103E90001B0528D5089A099B190011430FD05D4ACC
:103EA0005D4B06980799FEF7AFFF00287AD00022F5
:103EB0005A4B06980799FEF799FF002872D01C9B71
:103EC0005B4506DD5A469B1A013B1C9303E0052621
:103ED000DDE700231C938023DB001E9A1A431E9209
:103EE000002600239B461D9B9E4265D29F1B0223FA
:103EF0001E9A1A400A921E9A134202D0002E00D037
:103F000000275B46002B07D0089A099B0698079963
:103F1000FEF70BFF069007910022002320002900E6
:103F2000FEF764FF002800D07CE03D4B1E9A134052
:103F3000049303971C9B0293069B079C0093019498
:103F400053460C9A4946404600F086F8002E00D1B0
:103F500083E71E9B9B0671D54525441C53460200F2
:103F600049462800C0475A46D317D2185A4005235D
:103F70000593013E0496002303930A3302935B46A4
:103F8000DB0F019300925346220049464046FFF75B
:103F90006EFD0A9B002B00D15FE7020047460C9E96
:103FA0001D9D53E01C9B002B9DD00D9B002B9AD098
:103FB0001C9B013B1C9396E7002798E7FFFFEF7FD0
:103FC000FFFFEFFF01FCFFFF0000F03FFB799F5078
:103FD0001344D33FB3C8608B288AC63F0000F83F24
:103FE00061436F63A787D23F71A379094F930A405A
:103FF0000000E03F1655B5BBB16B0240EF39FAFE49
:10400000422EE63FFF03000000002C400000244049
:10401000000018402D431CEBE2361A3F80842E41ED
:10402000FFF7FFFF069C079D220029008020000665
:10403000844661440B000692079376E765258CE77A
:10404000541C534649462020B8472200931BAB42DC
:10405000F6D3100001E7C046F0B5DE4657464E469F
:104060004546E0B595B00690079193469946209F46
:104070001E9A1F9B10001900FEF7D3FE002831D1B5
:1040800001225242BF4B1E981F99FEF7AFFE002837
:1040900037D101225242BC4B1E981F99FEF7BCFE3D
:1040A00000283DD10022B94B1E981F99FEF7B4FE9F
:1040B000002850D10022B64B1E981F99FEF796FE9D
:1040C000002848D1002200231E981F99FEF78EFE7B
:1040D000002850D100239846229B5B0500D4B6E00F
:1040E000002458E0229B0393219B02930323019316
:1040F000A84B00934B465A4607990698FFF7D8FB02
:104100000EE1229B0393219B029304230193A24B74
:1041100000934B465A4607990698FFF7C9FBFFE004
:104120000423229A1A4022990B4210D09B4B002A5A
:104130000FD00422229903912199029101920093B8
:104140004B465A4607990698FFF7B2FBE8E0944BB6
:10415000EDE70322EEE7229B0493219B0393029752
:104160001E9B1F9C009301944B465A460799069844
:10417000FFF762FDD4E01E9A1F9B00200021FEF78E
:10418000C2FD1E901F9101239846A5E70CAB30227B
:104190001A55013F01341F2C01D8092FF6D81E985B
:1041A0001F99FEF767FE0500FEF74CFE02000B00AC
:1041B0001E981F99FEF7A7FD7A4BFA009B181A6804
:1041C0005B680A920B93FEF7CEFD08900991FEF70B
:1041D00075FE0600FEF732FE02000B0008980999F2
:1041E000FEF791FD0890099100226F4BFEF714FE37
:1041F00000282ED001363000FEF720FE02000B0012
:104200000A980B99FEF7F8FD002801D00135002629
:10421000002F2CD12800FEF715FE02000B001E987F
:104220001F99FEF770FD06000F0000225E4BFEF79F
:10423000DDFD002846D100225B4B30003900FEF73F
:10424000EBFD00283ED1EB073CD501353AE00627CF
:1042500046E70022544B08980999FEF7C7FD00284D
:10426000D6D1002E01D0F307D2D50136D0E7AA4629
:104270001F2C11D8013F0A213000FEF709FB651CF5
:1042800030310CAB19550A213000FEF701FB092E25
:104290000ED906002C00EBE755461F2C0CD87B1ED0
:1042A000002F09D00CAA302111551F000134F4E76A
:1042B0002B0055461C00F0E71F2C03D80CAB2E2218
:1042C0001A5501341F2C10D80A212800FEF7B8FA1D
:1042D000661C30310CAB19550A212800FEF7B0FAE4
:1042E000051E01D03400EDE734000323229A134069
:1042F000012B1CD01F2C06D84346002B32D00CAB10
:104300002D221A550134229B0393219B0293019481
:104310000CAB00934B465A4607990698FFF7C8FA2C
:1043200015B0F0BCBB46B246A946A046F0BD219BE5
:10433000002B13D04346002B02D10C3313420FD075
:10434000219B013B2193190003E00CAB30221A554D
:1043500001348C42CED21F2CF7D9CBE72199F8E754
:104360002199F6E7229B5B0704D50CAB2B221A554B
:104370000134C8E7229B1B07C5D50CAB20221A5578
:104380000134C0E7FFFFEFFFFFFFEF7F65CDCD41B9
:1043900065CDCDC12C8B0010308B0010208B001010
:1043A000288B0010E89400100000E03FF0B5DE46D6
:1043B00057464E464546E0B593B0824688469346FA
:1043C0001193002900D10DE300255646119B187862
:1043D000002800D109E3252809D06C1C5B462A007F
:1043E0004146B047119B013311932500EEE701339D
:1043F0001193002720E001231F4301321192012471
:1044000018E002231F4301321192012412E0042319
:104410001F430132119201240CE008231F43013293
:104420001192012406E010231F430132119201244E
:1044300000E00024002C09D0119A1378203BD9B257
:104440001029F6D88B00C849CB589F46119B1A7883
:104450001300303BDBB2092B10D92A2A13D00B945E
:10446000119B1A782E2A1ED0119A1378683BD9B264
:10447000122959D88B00BD49CB589F4611A8FFF788
:1044800005FA0B90ECE71C9B1A1D1C921B68002B75
:1044900004DB0B93119B01331193E1E702221743D5
:1044A0005B420B93F6E78022D20017435A1C11920D
:1044B0005A781300303BDBB2092B0BD92A2AD3D10F
:1044C0001C9B1A1D1C921C68002C08DB119B0133DD
:1044D0001193C9E711A8FFF7D9F90400C4E7002434
:1044E000F4E780235B003B43511C119151786C2908
:1044F00001D01F0018E0C0239B001F43023211921D
:1045000012E080233B43511C11915178682901D05E
:104510001F0009E0C0231F430232119204E08023F0
:104520005B001F4301321192119B1878672818D83D
:10453000252800D24CE20300253BDAB2422A00D9FA
:1045400046E293008A4AD3589F4680239B001F432C
:1045500001321192E8E780235B001F430132119280
:10456000E2E7782800D933E2692800D230E202007D
:10457000693AD2B2012393407E4A134211D11A06FE
:1045800000D500E25B0500D422E21C9B1A1D1C92A0
:104590001B689A46002C00D0B2E1012252425346D9
:1045A0008EE16F280ED006D858283DD0622804D15D
:1045B00002239C4608E0782839D010239F43063B0D
:1045C0009C4601E008239C46582833D0692803D034
:1045D000642801D00C2297437A0501D50122974324
:1045E00069282AD0642828D0BA0500D59FE0FA05AA
:1045F00000D5C1E07A0600D4D3E01C9A111D1C91AD
:104600001168FF220A4005970B9B049303946346AD
:1046100002930023019300925B462A00414630003A
:10462000FFF725FA050027E010239C46CCE710236E
:104630009C46C9E720221743C8E7BA0520D4FA05EB
:1046400050D47A0666D51C9A111D1C911168FF2260
:104650000A40D0171118414005970B9B049303940F
:1046600063460293D20F019200915B462A004146B5
:104670003000FFF7FCF90500119B01331193A5E60B
:104680001C9A073207218A43110008311C911168D6
:1046900053689946DB170C930D930C9A0D9B1000F1
:1046A00048400E904A4653400F930E980F990C9A2B
:1046B0000D9B801A99410E900F9108970B9B0793C1
:1046C000069463460493002305934B46DA0F029247
:1046D000009001915B462A0041463000FFF725FA21
:1046E0000500C9E71C9A111D1C911268D0171118FA
:1046F000414005970B9B0493039463460293D20FAA
:10470000019200915B462A0041463000FFF7AFF965
:104710000500B1E73A0605D51C9A111D1C9100232E
:10472000D25E96E71C9A111D1C91126891E71C9AA3
:10473000073207218A43110008311C9108970B9B0F
:1047400007930694634604930023059302935368EA
:104750001268009201935B462A0041463000FFF741
:10476000E4F9050088E7C046489300108C930010D8
:10477000D8930010419000001C9A111D1C910597C0
:104780000B9B0493039463460293002301931368E5
:1047900000935B462A0041463000FFF768F90500A8
:1047A0006AE73A0606D51C9A111D1C91126812047C
:1047B000120C28E71C9A111D1C91126823E7462849
:1047C00019D01C9B0733072293431A0008321C920E
:1047D00004970B9A039202941A685B680092019303
:1047E0005B462A0041463000FFF736FC0500119B6E
:1047F00001331193EAE520231F43E2E7672801D044
:10480000472802D180231B011F43452801D0472898
:1048100001D120231F431C9B0733072293431A0017
:1048200008321C9204970B9A039202941A685B68F0
:10483000009201935B462A0041463000FFF7FCF9E5
:104840000500119B01331193C0E502231A003A4081
:1048500091463B421DD001241C9B1A1D1C926F1CCB
:1048600018785B462A004146B0474B46002B14D1CE
:10487000119B013311933D00A8E5571C5B4641464F
:104880002020B04723003A005C1C9D42F5D815005B
:10489000E2E701232A000B9DF6E73A00B1460B9EA2
:1048A00006E0571C5B4641462020C8472C003A00D2
:1048B000651CA642F5D817004E46D9E701330A0019
:1048C0001978002902D0511E002AF7D152469B1AAE
:1048D0008022D200390011408946174202D0A342FB
:1048E00000D9230002221100394010913A4209D028
:1048F0002A00250057469A4633004E46994621E045
:1049000022004CE62A004546A04606E0541C5B46C1
:1049100029002020B0473B0022005F1C0B999942E0
:10492000F4D84446A8463B00250057469A46330033
:104930004E46994606E01D000137541C5B46414631
:10494000C84722003878002804D0002EF4D06B1E0F
:10495000002DF0D1150053464E46109A002A03D17F
:10496000119B0133119331E50B9F2A0006E0551C82
:104970005B4641462020B04723002A005C1C9F4232
:10498000F5D81500ECE721233B431C9A111D1C911F
:1049900012680593082304930394083302930023B9
:1049A000019300925B462A0041463000FFF75FF812
:1049B0000500119B0133119308E56C1C5B462A002E
:1049C00041462520B047119B013311932500FDE49A
:1049D0006C1C5B462A004146B047119B0133119382
:1049E0002500F3E40A4B9A46EEE4B2465D450DD34A
:1049F0005B465A1E5B4641460020D047280013B054
:104A0000F0BCBB46B246A946A046F0BD2A00F1E77D
:104A10007D3800100EB430B584B0010007AC08CC6E
:104A200003940122054D009452422800FFF7BEFC7A
:104A300004B030BC08BC03B01847C046753800103D
:104A40000CB430B585B00A0008AC08CC0394054D11
:104A5000009401002800FFF7A9FC05B030BC08BC99
:104A600002B018477538001000B585B00290039168
:104A700001210448009313004A4202A9FFF796FC63
:104A800005B000BD7F38001000BEFDE710B5FFF790
:104A9000FBFF000030B583B00D001900002A0BD0D9
:104AA000074B084C019200932B000200200000F0FD
:104AB00061F90120FFF7E8FF034B1A00F1E7C04658
:104AC000388B0010488B0010448B001010B5EFF3AA
:104AD0000583002B00D000BEFDF7D0FD034C01E0A4
:104AE00008CC9847024B9C42FAD310BD2C82001090
:104AF0003482001010B50300080011001B689847AD
:104B000010BD0000F8B507000D001600437D002B16
:104B100002D0002400200CE0036811002800984710
:104B20002DE03B7D10E03B68154802219847601C52
:104B30000134B44214DA002CF3DD2B19013B1B784D
:104B40000D3B5A425341DBB22A5D0A2AF0D1002BB9
:104B5000EED1A042E7DA3B68211A28189847E2E72D
:104B6000B04203DA3B68311A28189847002E06DD58
:104B7000AD19013D2B780D3B5A4253413B75F8BDB1
:104B80003895001070B505000368002B16D00C4B4B
:104B90001C6805E0290004C92000FFF7B3FF246961
:104BA000002C09D02368002BF9D0064B1B68002B82
:104BB000F0D0A342F3D1EDE700232B6070BDC046D7
:104BC000CC160020D416002070B505000C000B6830
:104BD000802B05D023685A1C2260E418257170BD13
:104BE0000800FFF7CFFFF5E710B5FDF781FA074A98
:104BF000002312184B41002B03DB054803F0D8FAC1
:104C000010BD01225242034BF7E7C04640420F005D
:104C1000B00C0020FFFFFF7F10B5024803F088FAB8
:104C200010BDC046B00C0020F0B5CE46474680B55A
:104C300083B006000D0090461C00FFF7D5FF8146AB
:104C40006B1C05D0002C08D0184F194B1C6807E0CE
:104C5000300003F035FA0500F4E7164FF5E7246954
:104C6000002C17D02368002BF9D0134B1B68002BA6
:104C700001D0A342F3D12A0031002000B8474346B7
:104C8000002BECD06B46D91D0A230B7001222000AB
:104C9000B847E4E74B46002B05D1280003B0C0BC61
:104CA000B946B046F0BDFFF7B7FFF6E7054B001079
:104CB000CC160020F54A0010D4160020094A01E065
:104CC00010331A001368002B08D08342F8D1002952
:104CD00007D1036913600023036102E0002900D0BB
:104CE00010607047CC16002010B5064B1C6801E020
:104CF00098472469002C03D06368002BF8D1F8E7AB
:104D000010BDC046CC16002010B500F045F900F0EB
:104D1000E7FA012010BD70B5050003F0D1F90400D9
:104D20000123012201002800FFF77EFFFFF7DCFFCF
:104D3000200070BD70B5A2B004000E00FFF754FF54
:104D40000500002301930A483300220001A9FFF760
:104D50008BFE040001A8FFF715FFFFF7C5FF002D2C
:104D600002D1200022B070BDFFF756FFF9E7C04620
:104D7000C94B00100FB400B583B004A901C901915B
:104D8000FFF7D8FF03B008BC04B0184710B582B0D5
:104D90000C00144BC3185A425341134A5B009B5EEC
:104DA0008B4204D06B46DA1D1470002115E06B466F
:104DB000DA1D0D23137000210029F3D183699B06AE
:104DC000FCD41378036001310132F5E783699B0657
:104DD000FCD413780360013101320029F6D002B00F
:104DE00010BDC0460080FCBF341D002082B00022F0
:104DF0006B46D91D06E08369DB06FCD403680B70A3
:104E000001320131002AF6D06B46D87902B07047E2
:104E100070B506000D00002405E0315D034B1868F5
:104E2000FFF7B4FF0134AC42F7DB70BD381D002042
:104E3000F8B506000D00002705E07C1CF719FFF708
:104E4000D5FF38702700AF4204DA0D4A1068826936
:104E5000D206F2D50B4A1268002A0AD0084A126814
:104E600050219163506B18390140074B9C466244B6
:104E70001160002F01D03800F8BD033FFBE7C046AA
:104E8000381D0020641600203410000010B5064BB9
:104E90001B68002B06D0054A126800219163044A62
:104EA0001068984710BDC04664160020381D0020C9
:104EB0006C160020024B1A6893691B07FCD47047DC
:104EC000381D002070B51D4B1B681D4A934207D04A
:104ED000142400281ED01B4B1B68002B02D070BD71
:104EE0001524F6E7174B1860174B19601749200077
:104EF000FCF7ECF901212000FCF7BCF90F4B1B6813
:104F000050229A63596B183A0A4011498C466344FF
:104F10001A60E4E70B4A1268002AE0D000259D637E
:104F200000212000FCF7A6F908492000FCF704FB4B
:104F3000044B1D60044B1D60D1E7C046381D0020A6
:104F400000800340641600206C1600208D4E001077
:104F50003410000070B50D001C000D4B1860002AC5
:104F60000BDA002C0EDA0A4B18682900FDF768F9F5
:104F700008480121FFF7A2FE70BD02211000FBF7D7
:104F8000D9FEEEE702212000FBF7D4FEEBE7C04696
:104F9000381D0020500C002010B5074B1B78074B24
:104FA0001B78074B1B78E1210123002249020548A9
:104FB000FFF7D0FF10BDC046689A0010649A001039
:104FC000609A00100040034070470000014B00222F
:104FD0001A707047531D00204B79FF2B0CD18B7931
:104FE000002B0BD1CB79012B0AD1082A0AD98A7858
:104FF000054B1A70092000E0002070470020FCE7F4
:105000000020FAE70020F8E7531D00200120704738
:1050100010B5012928D1117953791B020B4313498B
:1050200009788B4201D000201FE05378012B03D078
:10503000022B12D0002018E09178D3781B0219437C
:10504000DB0507D5480A4A0A01231A407E33194076
:10505000FDF7E0FA01204042F5E76422002100203C
:10506000FDF780FA012000E0012010BD531D002053
:10507000004870472096001010B51400012910D187
:105080005378012B0FD1127963791B021343072B3D
:1050900001D0002006E0054A9F33210001F046FBC5
:1050A00000E0012010BD0020FCE7C046789500100C
:1050B00001230370004870475895001010B50A7816
:1050C0004B781B0213438A7812041A43CB781B06D1
:1050D00013439622D200934200D010BD012000223B
:1050E00011004042FDF796FA024B1860024B19601E
:1050F0007047C046681600207016002010B5FCF7F7
:10510000F7FF0E4A002312184B41002B12DB0C480C
:1051100003F04EF800280CD001200021404201F09D
:10512000CFF9002001F05AFC0028F5D1044802F024
:10513000FFFF10BD01225242024BE8E740420F0040
:105140002C1D0020FFFFFF7F10B5024B1878FCF7E5
:105150009BF810BD541D00200268EFF3108172B659
:105160001368002BFCD0BFF35F8F416070470000D5
:1051700070B5144B1B68002B1AD0124C2000FFF79F
:10518000EBFF114B00221A7021686368BFF35F8F39
:105190000A6083F31088002400250C4B1878FCF774
:1051A0004FF8002808D1002400252000290070BDF8
:1051B000FA24A4000025F0E7044B1878FCF764F803
:1051C000F3E7C046FC1A0020561D0020541D0020A5
:1051D000F0B585B0060014001D000CAB1F78FCF77D
:1051E00087FF22002B0012184B41002B09DB02978E
:1051F0000B9901910A9900913000FCF7A3FD05B0CD
:10520000F0BD01225242014BF1E7C046FFFFFF7F94
:10521000F0B5C64600B584B00500884616001F00EC
:105220000AAB1C78FCF726FD0294019700962A0031
:105230004346FFF7CDFF04B080BCB846F0BD000088
:1052400010B582B02048002102F09AFF00281AD140
:105250001E4B1B68002B14D01C4C2000FFF77CFF5A
:105260001B4A137801214B40DBB2012111702168E8
:105270006268BFF35F8F0020086082F31088002B04
:1052800017D102B010BD01200021404201F018F9F1
:10529000002001F07BFB04000B4802F049FF002CCA
:1052A000EFD00C4B1B68002BEBD00B4A10689847D3
:1052B000E7E70A4A012300930023FA208000002137
:1052C000FFF7A6FFDDE7C0462C1D0020FC1A0020DA
:1052D000561D002068160020701600207151001025
:1052E00010B582B0D0231B061C68FCF7C3FCFCF78A
:1052F000A3FDA0422ED1264B1B7802F043F8254B8C
:105300001B68002B2CD00120FCF756FA224C207091
:105310002249FF231840FBF7D9FF20780121FBF732
:10532000A9FF0520FBF7C0FF041E1DD00120FBF7DD
:10533000E3FE01001A4B1800FCF79EFA19490022FF
:105340000520FBF7EDFF18480121FFF7B7FC20000F
:1053500002B010BD154B164A1648C121FFF79AFB43
:105360000C48FCF747FACEE70D4808220021FEF76B
:1053700075FA114A012300930023FA2080000021CE
:10538000FFF746FFC043C40F0028E0DADBE7C04662
:105390006C9A00102C1D0020541D0020415200105A
:1053A000FC1A002049510010680C002050860010A3
:1053B00050960010A48B00107151001010B5002001
:1053C00001F0C8FA10BD000070B505000C00FFF731
:1053D000F5FF002834D0002001F0D8FA002832D0A0
:1053E000FCF786FE1B4A002312184B41002B19DBE9
:1053F000194802F0DDFE002828D0FFF7DFFF002863
:1054000004D0002001F0C2FA00280FD101200021B1
:10541000404201F055F8032464420F4802F088FE30
:10542000200070BD012252420C4BE1E7220029000E
:10543000002001F0B7FA041EEFD103246442ECE728
:1054400003246442ECE703246442E9E70324644252
:10545000E6E7C04640420F002C1D0020FFFFFF7F03
:10546000F0B5C64600B580460C00FCF741FE314A57
:10547000002312184B41002B07DB2F4802F098FE47
:10548000002806D180BCB846F0BD012252422B4B09
:10549000F3E7FFF793FF002849D1294B00200021B3
:1054A00018605960244802F043FEEBE70120002118
:1054B000404201F005F8002001F090FAFFF77EFF6E
:1054C0000028EFD0002001F013FB002820D0A542D7
:1054D000E8DA661B002001F00BFB0200864200DCCC
:1054E0003200002AE2D043465919002001F0DCFACC
:1054F000060001200021404200F0E2FF002001F000
:105500006DFAAD19FCF7F4FD0D4B18605960DEE73C
:10551000FCF7EEFD0A4B1E685F680A4A00239219E9
:105520007B419942BED8D2D19042D0D9BAE700256A
:10553000CDE7C04640420F002C1D0020FFFFFF7F3B
:10554000380E002020A1070000487047CC960010BC
:10555000004870477896001010B50400154B1B7872
:10556000002B0ED0002C11D1134B144A5A8001236A
:1055700001335B009BB21048C022920013430380AA
:1055800010BD0C48112100F025F8EBE7052C0ED8D2
:105590000B4BA400E4580023122BE9D8E15C00294E
:1055A000E6D00133044A58008152DBB2F4E7002010
:1055B000E6E7C0463C1D0020A416002009040000B8
:1055C0006096001010B5024800F032F810BDC046D9
:1055D0001C1B002010B5002901D000230AE0104B4D
:1055E000104A11483531FFF755FA00220DE03732E5
:1055F000C25401334A1E9A420ED90F2B0CD85A08B6
:105600000A4CA45CDA07F0D4042214410F22224091
:10561000092AECDC3032EBE7C0180023037010BD20
:105620003C8C0010E0960010448C00101C1B0020E5
:1056300030B589B0040004AD0D2200212800FEF72A
:105640000DF90D2200216846FEF708F94B232B7057
:105650000D226946280002F063FD002304E05A1D74
:1056600069468A5CE2540133072BF8DD09B030BD8E
:1056700010B5038B3F333F229343022915D0124CC0
:105680002268C260D31823609C0610D10F4C624080
:10569000634080246401A3420FD88906114380230C
:1056A0001B060B434268136010BD5B00E7E7084B25
:1056B000084A09485121FFF7EDF9084B054A064809
:1056C0005321FFF7E7F9C046E01A00200000105010
:1056D000408E001050970010708E0010D48E001075
:1056E00070B505007F230340C4095800001940012C
:1056F000244E801985706542654145700025C5704E
:105700000183C276012C1AD0DE001F498C46664404
:105710001C495D002D196D0149198E60194D5E00FF
:1057200036197601AD19A96800250D60002B0CD142
:10573000144A931900225A60144ADA6070BDDE00E0
:1057400013498C4666448660E8E7012C0ED05D1E46
:10575000ED0010498C4665440A495B001B195B014A
:10576000C9184D601100FFF783FFE7E75D1EED00EC
:1057700009498C46654403495B001B195B01C91844
:105780004D60EFE7D8160020840010500001105043
:10579000800010500C0010500800105010B504008C
:1057A0007F202040E409400000194001024BC0184E
:1057B00000F032F910BDC046D816002010B5002800
:1057C00004D101210520FBF755FD10BD034B044A10
:1057D000D42104484900FFF75DF9C0461C8F001032
:1057E00040970010708E001010B5002805D10022DF
:1057F00000218020FFF7D2FF10BD034B034AD921BF
:1058000003484900FFF746F91C8F0010309700103D
:10581000708E0010024B80225202DA647047C0463C
:105820000020115070B5041E26D100F0D3F8164D9B
:105830000C23AB671549FF220520FBF771FD1448C7
:1058400040220021FEF70AF8002240210020FFF745
:1058500047FF002240218020FFF742FF02F0A0FC1A
:1058600001232B6480239B05EB649023094AEA50B3
:105870002000FFF7CFFF70BD074B084A762108488C
:10588000FF31FFF707F9C0460000115075040020F2
:10589000D816002010D001001C8F00106497001053
:1058A000708E0010044B1970002904D0034A902315
:1058B00080218902D15070474E1D002000201150D8
:1058C0000B785B0602D14B78052B00D070478A78A5
:1058D000014B1A60FAE7C0460000115010B50A00EB
:1058E00000280DD18878097953791B020B435B0599
:1058F000590DD2789207920FFFF7F2FE012010BDEA
:10590000034B044AF0210448FF31FFF7C3F8C046B7
:105910001C8F001020970010708E001010B502F040
:105920003FFC10BD10B50400080011001A00002C47
:1059300003D1FFF733FF012010BD034B034AFE21C3
:1059400003484900FFF7A6F81C8F001010970010BD
:10595000708E001010B57F23180008400B4205D14F
:10596000CB09012B0ED00222074B9A66C9094000D1
:1059700040184001054BC01880221201002102F09E
:105980002FFC10BD0122EFE700201150D816002097
:1059900010B57F22100008400A4200D110BDC9098D
:1059A000400040184001044BC0180023C37000227F
:1059B000024902F015FCF1E7D8160020FFF7FFFFBF
:1059C00004E00A780270013101301A00531E002AE7
:1059D000F7D1704710B580235B040A4A13600A4A66
:1059E00013600A4B1A6880235B049343F9D1802229
:1059F000520100210648FDF731FF064B09225A6784
:105A000010BDC04600E0004000F0004008C000406B
:105A1000000010500000115070B504000D00160079
:105A2000837E002B17D1A6820023E3820133A37665
:105A30002561200002F094FB002804D00C4A90233A
:105A400080218902D150200002F07AFB00280AD080
:105A50000123237770BD81780648FFF78BF920007A
:105A600002F0B6FBDFE7200002F0AAFBF2E7C04637
:105A7000002011501490001070B50500002408E0BB
:105A80009B1A5B01164A9B18DB6828009847013473
:105A9000E4B2144B1A782300511CA1420DDBA24240
:105AA000EED9114B1B6862019B18002BECD10F49FA
:105AB0000F48104AFFF75EF910E00F4C5422002106
:105AC0002000FDF7CBFE201D1022FF21FDF7C6FEB2
:105AD000200014302022FF21FDF7C0FE70BDC0461B
